{"abi":[{"type":"constructor","inputs":[{"name":"_operator","type":"address","internalType":"address"}],"stateMutability":"nonpayable"},{"type":"function","name":"getRoots","inputs":[{"name":"user","type":"address","internalType":"address"}],"outputs":[{"name":"historyRoot","type":"string","internalType":"string"},{"name":"profileRoot","type":"string","internalType":"string"},{"name":"documentsRoot","type":"string","internalType":"string"}],"stateMutability":"view"},{"type":"function","name":"operator","inputs":[],"outputs":[{"name":"","type":"address","internalType":"address"}],"stateMutability":"view"},{"type":"function","name":"owner","inputs":[],"outputs":[{"name":"","type":"address","internalType":"address"}],"stateMutability":"view"},{"type":"function","name":"setOperator","inputs":[{"name":"newOperator","type":"address","internalType":"address"}],"outputs":[],"stateMutability":"nonpayable"},{"type":"function","name":"transferOwnership","inputs":[{"name":"newOwner","type":"address","internalType":"address"}],"outputs":[],"stateMutability":"nonpayable"},{"type":"function","name":"updateRoots","inputs":[{"name":"user","type":"address","internalType":"address"},{"name":"historyRoot","type":"string","internalType":"string"},{"name":"profileRoot","type":"string","internalType":"string"},{"name":"documentsRoot","type":"string","internalType":"string"}],"outputs":[],"stateMutability":"nonpayable"},{"type":"event","name":"OperatorUpdated","inputs":[{"name":"newOperator","type":"address","indexed":true,"internalType":"address"}],"anonymous":false},{"type":"event","name":"OwnershipTransferred","inputs":[{"name":"previousOwner","type":"address","indexed":true,"internalType":"address"},{"name":"newOwner","type":"address","indexed":true,"internalType":"address"}],"anonymous":false},{"type":"event","name":"RootsUpdated","inputs":[{"name":"user","type":"address","indexed":true,"internalType":"address"},{"name":"historyRoot","type":"string","indexed":false,"internalType":"string"},{"name":"profileRoot","type":"string","indexed":false,"internalType":"string"},{"name":"documentsRoot","type":"string","indexed":false,"internalType":"string"}],"anonymous":false},{"type":"error","name":"Unauthorized","inputs":[]},{"type":"error","name":"ZeroAddress","inputs":[]}],"bytecode":{"object":"0x608060405234801561000f575f80fd5b50604051610a3d380380610a3d83398101604081905261002e916100e2565b6001600160a01b0381166100555760405163d92e233d60e01b815260040160405180910390fd5b5f8054336001600160a01b031991821681178355600180549092166001600160a01b038516179091556040519091907f8be0079c531659141344cd1fd0a4f28419497f9722a3daafe3b4186f6b6457e0908290a36040516001600160a01b038216907fb3b3f5f64ab192e4b5fefde1f51ce9733bbdcf831951543b325aebd49cc27ec4905f90a25061010f565b5f602082840312156100f2575f80fd5b81516001600160a01b0381168114610108575f80fd5b9392505050565b6109218061011c5f395ff3fe608060405234801561000f575f80fd5b5060043610610060575f3560e01c806336a87f6114610064578063570ca735146100795780638da5cb5b146100a9578063a82e3482146100bb578063b3ab15fb146100dd578063f2fde38b146100f0575b5f80fd5b6100776100723660046105a0565b610103565b005b60015461008c906001600160a01b031681565b6040516001600160a01b0390911681526020015b60405180910390f35b5f5461008c906001600160a01b031681565b6100ce6100c9366004610643565b61021c565b6040516100a0939291906106a6565b6100776100eb366004610643565b6103fe565b6100776100fe366004610643565b610497565b5f546001600160a01b0316331480159061012857506001546001600160a01b03163314155b15610145576040516282b42960e81b815260040160405180910390fd5b6001600160a01b03871661016c5760405163d92e233d60e01b815260040160405180910390fd5b6001600160a01b0387165f90815260026020526040902085156101975780610195878983610780565b505b83156101ae57600181016101ac858783610780565b505b81156101c557600281016101c3838583610780565b505b876001600160a01b03167fb33b46387dd7959977b36b1e5d6e80416bf06d28437359438b100054070a15af825f01836001018460020160405161020a939291906108b3565b60405180910390a25050505050505050565b60608060605f60025f866001600160a01b03166001600160a01b031681526020019081526020015f209050805f01816001018260020182805461025e906106fc565b80601f016020809104026020016040519081016040528092919081815260200182805461028a906106fc565b80156102d55780601f106102ac576101008083540402835291602001916102d5565b820191905f5260205f20905b8154815290600101906020018083116102b857829003601f168201915b505050505092508180546102e8906106fc565b80601f0160208091040260200160405190810160405280929190818152602001828054610314906106fc565b801561035f5780601f106103365761010080835404028352916020019161035f565b820191905f5260205f20905b81548152906001019060200180831161034257829003601f168201915b50505050509150808054610372906106fc565b80601f016020809104026020016040519081016040528092919081815260200182805461039e906106fc565b80156103e95780601f106103c0576101008083540402835291602001916103e9565b820191905f5260205f20905b8154815290600101906020018083116103cc57829003601f168201915b50505050509050935093509350509193909250565b5f546001600160a01b03163314610427576040516282b42960e81b815260040160405180910390fd5b6001600160a01b03811661044e5760405163d92e233d60e01b815260040160405180910390fd5b600180546001600160a01b0319166001600160a01b0383169081179091556040517fb3b3f5f64ab192e4b5fefde1f51ce9733bbdcf831951543b325aebd49cc27ec4905f90a250565b5f546001600160a01b031633146104c0576040516282b42960e81b815260040160405180910390fd5b6001600160a01b0381166104e75760405163d92e233d60e01b815260040160405180910390fd5b5f80546040516001600160a01b03808516939216917f8be0079c531659141344cd1fd0a4f28419497f9722a3daafe3b4186f6b6457e091a35f80546001600160a01b0319166001600160a01b0392909216919091179055565b80356001600160a01b0381168114610556575f80fd5b919050565b5f8083601f84011261056b575f80fd5b50813567ffffffffffffffff811115610582575f80fd5b602083019150836020828501011115610599575f80fd5b9250929050565b5f805f805f805f6080888a0312156105b6575f80fd5b6105bf88610540565b9650602088013567ffffffffffffffff808211156105db575f80fd5b6105e78b838c0161055b565b909850965060408a01359150808211156105ff575f80fd5b61060b8b838c0161055b565b909650945060608a0135915080821115610623575f80fd5b506106308a828b0161055b565b989b979a50959850939692959293505050565b5f60208284031215610653575f80fd5b61065c82610540565b9392505050565b5f81518084525f5b818110156106875760208185018101518683018201520161066b565b505f602082860101526020601f19601f83011685010191505092915050565b606081525f6106b86060830186610663565b82810360208401526106ca8186610663565b905082810360408401526106de8185610663565b9695505050505050565b634e487b7160e01b5f52604160045260245ffd5b600181811c9082168061071057607f821691505b60208210810361072e57634e487b7160e01b5f52602260045260245ffd5b50919050565b601f82111561077b57805f5260205f20601f840160051c810160208510156107595750805b601f840160051c820191505b81811015610778575f8155600101610765565b50505b505050565b67ffffffffffffffff831115610798576107986106e8565b6107ac836107a683546106fc565b83610734565b5f601f8411600181146107dd575f85156107c65750838201355b5f19600387901b1c1916600186901b178355610778565b5f83815260208120601f198716915b8281101561080c57868501358255602094850194600190920191016107ec565b5086821015610828575f1960f88860031b161c19848701351681555b505060018560011b0183555050505050565b5f8154610846816106fc565b808552602060018381168015610863576001811461087d576108a8565b60ff1985168884015283151560051b8801830195506108a8565b865f52825f205f5b858110156108a05781548a8201860152908301908401610885565b890184019650505b505050505092915050565b606081525f6108c5606083018661083a565b82810360208401526108d7818661083a565b905082810360408401526106de818561083a56fea2646970667358221220abf7a31471cb103362d7ff399f8959a1c2f2adfc57fd9b9b2d34cf060a78a20764736f6c63430008180033","linkReferences":{}},"methodIdentifiers":{"getRoots(address)":"a82e3482","operator()":"570ca735","owner()":"8da5cb5b","setOperator(address)":"b3ab15fb","transferOwnership(address)":"f2fde38b","updateRoots(address,string,string,string)":"36a87f61"},"id":20}