{"abi":[{"type":"constructor","inputs":[{"name":"_operator","type":"address","internalType":"address"}],"stateMutability":"nonpayable"},{"type":"function","name":"applicantAt","inputs":[{"name":"index","type":"uint256","internalType":"uint256"}],"outputs":[{"name":"","type":"address","internalType":"address"}],"stateMutability":"view"},{"type":"function","name":"applicantCount","inputs":[],"outputs":[{"name":"","type":"uint256","internalType":"uint256"}],"stateMutability":"view"},{"type":"function","name":"applyForVerification","inputs":[{"name":"metadataURI","type":"string","internalType":"string"}],"outputs":[],"stateMutability":"nonpayable"},{"type":"function","name":"applyOnBehalf","inputs":[{"name":"wallet","type":"address","internalType":"address"},{"name":"metadataURI","type":"string","internalType":"string"}],"outputs":[],"stateMutability":"nonpayable"},{"type":"function","name":"getRecord","inputs":[{"name":"wallet","type":"address","internalType":"address"}],"outputs":[{"name":"status","type":"uint8","internalType":"enum LawyerRegistry.Status"},{"name":"metadataURI","type":"string","internalType":"string"},{"name":"appliedAt","type":"uint256","internalType":"uint256"},{"name":"verifiedAt","type":"uint256","internalType":"uint256"},{"name":"rejectionReason","type":"string","internalType":"string"}],"stateMutability":"view"},{"type":"function","name":"getStatus","inputs":[{"name":"wallet","type":"address","internalType":"address"}],"outputs":[{"name":"","type":"uint8","internalType":"enum LawyerRegistry.Status"}],"stateMutability":"view"},{"type":"function","name":"isVerified","inputs":[{"name":"wallet","type":"address","internalType":"address"}],"outputs":[{"name":"","type":"bool","internalType":"bool"}],"stateMutability":"view"},{"type":"function","name":"lawyers","inputs":[{"name":"","type":"address","internalType":"address"}],"outputs":[{"name":"status","type":"uint8","internalType":"enum LawyerRegistry.Status"},{"name":"metadataURI","type":"string","internalType":"string"},{"name":"appliedAt","type":"uint256","internalType":"uint256"},{"name":"verifiedAt","type":"uint256","internalType":"uint256"},{"name":"rejectionReason","type":"string","internalType":"string"}],"stateMutability":"view"},{"type":"function","name":"operator","inputs":[],"outputs":[{"name":"","type":"address","internalType":"address"}],"stateMutability":"view"},{"type":"function","name":"owner","inputs":[],"outputs":[{"name":"","type":"address","internalType":"address"}],"stateMutability":"view"},{"type":"function","name":"rejectLawyer","inputs":[{"name":"wallet","type":"address","internalType":"address"},{"name":"reason","type":"string","internalType":"string"}],"outputs":[],"stateMutability":"nonpayable"},{"type":"function","name":"setOperator","inputs":[{"name":"newOperator","type":"address","internalType":"address"}],"outputs":[],"stateMutability":"nonpayable"},{"type":"function","name":"transferOwnership","inputs":[{"name":"newOwner","type":"address","internalType":"address"}],"outputs":[],"stateMutability":"nonpayable"},{"type":"function","name":"verifiedAt","inputs":[{"name":"index","type":"uint256","internalType":"uint256"}],"outputs":[{"name":"","type":"address","internalType":"address"}],"stateMutability":"view"},{"type":"function","name":"verifiedCount","inputs":[],"outputs":[{"name":"","type":"uint256","internalType":"uint256"}],"stateMutability":"view"},{"type":"function","name":"verifyLawyer","inputs":[{"name":"wallet","type":"address","internalType":"address"}],"outputs":[],"stateMutability":"nonpayable"},{"type":"event","name":"ApplicationSubmitted","inputs":[{"name":"wallet","type":"address","indexed":true,"internalType":"address"},{"name":"timestamp","type":"uint256","indexed":false,"internalType":"uint256"}],"anonymous":false},{"type":"event","name":"LawyerRejected","inputs":[{"name":"wallet","type":"address","indexed":true,"internalType":"address"},{"name":"reason","type":"string","indexed":false,"internalType":"string"},{"name":"timestamp","type":"uint256","indexed":false,"internalType":"uint256"}],"anonymous":false},{"type":"event","name":"LawyerVerified","inputs":[{"name":"wallet","type":"address","indexed":true,"internalType":"address"},{"name":"timestamp","type":"uint256","indexed":false,"internalType":"uint256"}],"anonymous":false},{"type":"event","name":"OperatorUpdated","inputs":[{"name":"newOperator","type":"address","indexed":true,"internalType":"address"}],"anonymous":false},{"type":"event","name":"OwnershipTransferred","inputs":[{"name":"previousOwner","type":"address","indexed":true,"internalType":"address"},{"name":"newOwner","type":"address","indexed":true,"internalType":"address"}],"anonymous":false},{"type":"error","name":"AlreadyVerified","inputs":[]},{"type":"error","name":"NotPending","inputs":[]},{"type":"error","name":"Unauthorized","inputs":[]},{"type":"error","name":"ZeroAddress","inputs":[]}],"bytecode":{"object":"0x608060405234801561000f575f80fd5b506040516110ce3803806110ce83398101604081905261002e916100cb565b5f8054336001600160a01b031991821681178355600180549092166001600160a01b038516179091556040519091907f8be0079c531659141344cd1fd0a4f28419497f9722a3daafe3b4186f6b6457e0908290a36001600160a01b038116156100c5576040516001600160a01b038216907fb3b3f5f64ab192e4b5fefde1f51ce9733bbdcf831951543b325aebd49cc27ec4905f90a25b506100f8565b5f602082840312156100db575f80fd5b81516001600160a01b03811681146100f1575f80fd5b9392505050565b610fc9806101055f395ff3fe608060405234801561000f575f80fd5b50600436106100fb575f3560e01c806377db3bf9116100935780638da5cb5b116100635780638da5cb5b1461022c578063b3ab15fb1461023e578063b9209e3314610251578063f2fde38b14610274575f80fd5b806377db3bf9146101e057806381884f1c146101f357806388a53f09146102065780638bf3b8cd14610219575f80fd5b8063570ca735116100ce578063570ca73514610187578063617fba04146101b257806364aa3bd8146101c55780636bfe4ec2146101d8575f80fd5b806318f53993146100ff57806330ccebb5146101165780633345e3201461014e578063554ae56714610163575b5f80fd5b6004545b6040519081526020015b60405180910390f35b610141610124366004610b59565b6001600160a01b03165f9081526002602052604090205460ff1690565b60405161010d9190610bad565b61016161015c366004610c06565b610287565b005b610176610171366004610b59565b610377565b60405161010d959493929190610c98565b60015461019a906001600160a01b031681565b6040516001600160a01b03909116815260200161010d565b6101766101c0366004610b59565b6104b5565b6101616101d3366004610c06565b61061f565b600354610103565b6101616101ee366004610ce1565b610698565b61019a610201366004610d20565b6106a7565b610161610214366004610b59565b6106d5565b61019a610227366004610d20565b6107eb565b5f5461019a906001600160a01b031681565b61016161024c366004610b59565b6107ff565b61026461025f366004610b59565b610871565b604051901515815260200161010d565b610161610282366004610b59565b6108a7565b5f546001600160a01b031633146102b0576040516282b42960e81b815260040160405180910390fd5b60016001600160a01b0384165f9081526002602052604090205460ff1660038111156102de576102de610b79565b146102fc57604051633ee3282d60e11b815260040160405180910390fd5b6001600160a01b0383165f908152600260205260409020805460ff1916600317815560040161032c828483610dce565b50826001600160a01b03167f4c8ba53b7191da535a82d28fac93204443201c6922effd7d3e1952d59f68229e83834260405161036a93929190610e88565b60405180910390a2505050565b60026020525f90815260409020805460018201805460ff909216929161039c90610d4b565b80601f01602080910402602001604051908101604052809291908181526020018280546103c890610d4b565b80156104135780601f106103ea57610100808354040283529160200191610413565b820191905f5260205f20905b8154815290600101906020018083116103f657829003601f168201915b50505050509080600201549080600301549080600401805461043490610d4b565b80601f016020809104026020016040519081016040528092919081815260200182805461046090610d4b565b80156104ab5780601f10610482576101008083540402835291602001916104ab565b820191905f5260205f20905b81548152906001019060200180831161048e57829003601f168201915b5050505050905085565b6001600160a01b0381165f90815260026020819052604082208054918101546003820154600183018054606095879586958895919460ff909316939091906004860190849061050390610d4b565b80601f016020809104026020016040519081016040528092919081815260200182805461052f90610d4b565b801561057a5780601f106105515761010080835404028352916020019161057a565b820191905f5260205f20905b81548152906001019060200180831161055d57829003601f168201915b5050505050935080805461058d90610d4b565b80601f01602080910402602001604051908101604052809291908181526020018280546105b990610d4b565b80156106045780601f106105db57610100808354040283529160200191610604565b820191905f5260205f20905b8154815290600101906020018083116105e757829003601f168201915b50505050509050955095509550955095505091939590929450565b5f546001600160a01b0316331480159061064457506001546001600160a01b03163314155b15610661576040516282b42960e81b815260040160405180910390fd5b6001600160a01b0383166106885760405163d92e233d60e01b815260040160405180910390fd5b610693838383610950565b505050565b6106a3338383610950565b5050565b5f600482815481106106bb576106bb610ebf565b5f918252602090912001546001600160a01b031692915050565b5f546001600160a01b031633146106fe576040516282b42960e81b815260040160405180910390fd5b60016001600160a01b0382165f9081526002602052604090205460ff16600381111561072c5761072c610b79565b1461074a57604051633ee3282d60e11b815260040160405180910390fd5b6001600160a01b0381165f818152600260208181526040808420805460ff191690931783554260039384018190558354600181018555939094527fc2575a0e9e593c00f959f8c92f12db2869c3395a3b0502d05e2516446f71f85b90920180546001600160a01b0319168517905590519182527fb41163a388d4f662fde6b14d0a5ea20794b88f64b9d7f04be3ae5111192be455910160405180910390a250565b5f600382815481106106bb576106bb610ebf565b5f546001600160a01b03163314610828576040516282b42960e81b815260040160405180910390fd5b600180546001600160a01b0319166001600160a01b0383169081179091556040517fb3b3f5f64ab192e4b5fefde1f51ce9733bbdcf831951543b325aebd49cc27ec4905f90a250565b5f60026001600160a01b0383165f9081526002602052604090205460ff1660038111156108a0576108a0610b79565b1492915050565b5f546001600160a01b031633146108d0576040516282b42960e81b815260040160405180910390fd5b6001600160a01b0381166108f75760405163d92e233d60e01b815260040160405180910390fd5b5f80546040516001600160a01b03808516939216917f8be0079c531659141344cd1fd0a4f28419497f9722a3daafe3b4186f6b6457e091a35f80546001600160a01b0319166001600160a01b0392909216919091179055565b60026001600160a01b0384165f9081526002602052604090205460ff16600381111561097e5761097e610b79565b0361099c57604051630231faf760e31b815260040160405180910390fd5b6040805160a08101909152806001815260200183838080601f0160208091040260200160405190810160405280939291908181526020018383808284375f9201829052509385525050426020808501919091526040808501849052805180830182528481526060909501949094526001600160a01b038816835260029052502081518154829060ff19166001836003811115610a3a57610a3a610b79565b021790555060208201516001820190610a539082610ed3565b50604082015160028201556060820151600382015560808201516004820190610a7c9082610ed3565b5050506001600160a01b0383165f9081526005602052604090205460ff16610b03576001600160a01b0383165f818152600560205260408120805460ff191660019081179091556004805491820181559091527f8a35acfbc15ff81a39ae7d344fd709f28e8600b4aa8c65c6b64bfe7fe36bd19b0180546001600160a01b03191690911790555b826001600160a01b03167f42b09ff3689697d5c36406edc0d1a16211e12fd1109f240d7e16d498afc7545f4260405161036a91815260200190565b80356001600160a01b0381168114610b54575f80fd5b919050565b5f60208284031215610b69575f80fd5b610b7282610b3e565b9392505050565b634e487b7160e01b5f52602160045260245ffd5b60048110610ba957634e487b7160e01b5f52602160045260245ffd5b9052565b60208101610bbb8284610b8d565b92915050565b5f8083601f840112610bd1575f80fd5b50813567ffffffffffffffff811115610be8575f80fd5b602083019150836020828501011115610bff575f80fd5b9250929050565b5f805f60408486031215610c18575f80fd5b610c2184610b3e565b9250602084013567ffffffffffffffff811115610c3c575f80fd5b610c4886828701610bc1565b9497909650939450505050565b5f81518084525f5b81811015610c7957602081850181015186830182015201610c5d565b505f602082860101526020601f19601f83011685010191505092915050565b610ca28187610b8d565b60a060208201525f610cb760a0830187610c55565b8560408401528460608401528281036080840152610cd58185610c55565b98975050505050505050565b5f8060208385031215610cf2575f80fd5b823567ffffffffffffffff811115610d08575f80fd5b610d1485828601610bc1565b90969095509350505050565b5f60208284031215610d30575f80fd5b5035919050565b634e487b7160e01b5f52604160045260245ffd5b600181811c90821680610d5f57607f821691505b602082108103610d7d57634e487b7160e01b5f52602260045260245ffd5b50919050565b601f82111561069357805f5260205f20601f840160051c81016020851015610da85750805b601f840160051c820191505b81811015610dc7575f8155600101610db4565b5050505050565b67ffffffffffffffff831115610de657610de6610d37565b610dfa83610df48354610d4b565b83610d83565b5f601f841160018114610e2b575f8515610e145750838201355b5f19600387901b1c1916600186901b178355610dc7565b5f83815260208120601f198716915b82811015610e5a5786850135825560209485019460019092019101610e3a565b5086821015610e76575f1960f88860031b161c19848701351681555b505060018560011b0183555050505050565b60408152826040820152828460608301375f606084830101525f6060601f19601f8601168301019050826020830152949350505050565b634e487b7160e01b5f52603260045260245ffd5b815167ffffffffffffffff811115610eed57610eed610d37565b610f0181610efb8454610d4b565b84610d83565b602080601f831160018114610f34575f8415610f1d5750858301515b5f19600386901b1c1916600185901b178555610f8b565b5f85815260208120601f198616915b82811015610f6257888601518255948401946001909101908401610f43565b5085821015610f7f57878501515f19600388901b60f8161c191681555b505060018460011b0185555b50505050505056fea264697066735822122002342398dbe870ac5ba87c8077aa9fc6f9f379bd5f090766fb4b309682e962e664736f6c63430008180033","linkReferences":{}},"methodIdentifiers":{"applicantAt(uint256)":"81884f1c","applicantCount()":"18f53993","applyForVerification(string)":"77db3bf9","applyOnBehalf(address,string)":"64aa3bd8","getRecord(address)":"617fba04","getStatus(address)":"30ccebb5","isVerified(address)":"b9209e33","lawyers(address)":"554ae567","operator()":"570ca735","owner()":"8da5cb5b","rejectLawyer(address,string)":"3345e320","setOperator(address)":"b3ab15fb","transferOwnership(address)":"f2fde38b","verifiedAt(uint256)":"8bf3b8cd","verifiedCount()":"6bfe4ec2","verifyLawyer(address)":"88a53f09"},"id":21}